S00D000046696E616C2E737265632D
S31500000000F83D0520C52B0000712A0000C12B000019
S31500000010C12B0000C12B0000C12B0000C12B00002A
S31500000020000000000000000000000000C12B0000DE
S31500000030C12B000000000000C12B0000C12B0000F6
S3150000004085140000FD130000111500004D15000079
S315000000500124000001240000E5190000E519000054
S31500000060E5190000E51900003D20000011210000FF
S315000000702D220000112100002D22000000000000AA
S31500000080000000000000000000000000000000006A
S31500000090000000000000000000000000000000005A
S315000000A0000000000000000000000000000000004A
S315000000B0000000000000000000000000000000003A
S31500000400FFFFFFFFFFFDFFFFFCFFFFFFFFFFFFFFFB
S31500000410FCFFFFFFFFFFFFFFFCFFFF00FFFFFF00EA
S31500000420FCFF0F20FFFF0F20FCFF7F40FFFF7F40F8
S31500000430FCFF0D40FFFF0D40FFFFFFFFFFFFFFFF2B
S31500000440FFFFFFFFFFFFFFFFFFFFFFFFFFFFFFFFB6
S31500000450FFFFFFFFFFFFFFFFFFFFFFFFFFFFFFFFA6
S31500000460FFFFFFFFFFFFFFFFFFFFFFFFFFFFFFFF96
S31500000470FFFFFFFFFFFFFFFFFFFFFFFFFFFFFFFF86
S31500000480FFFFFFFFFFFFFFFFFFFFFFFFFFFFFFFF76
S31500000490FFFFFFFFFFFFFFFFFFFFFFFFFFFFFFFF66
S315000004A0FFFFFFFFFFFFFFFFFFFFFFFFFFFFFFFF56
S315000004B0FFFFFFFFFFFFFFFFFFFFFFFFFFFFFFFF46
S315000004C0FFFFFFFFFFFFFFFFFFFFFFFFFFFFFFFF36
S315000004D0FFFFFFFFFFFFFFFFFFFFFFFFFFFFFFFF26
S315000004E0FFFFFFFFFFFFFFFFFFFFFFFFFFFFFFFF16
S315000004F0FFFFFFFFFFFFFFFFFFFFFFFFFFFFFFFF06
S3150000050010B5054C237833B9044B13B10448AFF347
S3150000051000800123237010BDC8B90420000000002C
S31500000520083A000008B5034B1BB103490348AFF373
S31500000530008008BD00000000CCB90420083A000085
S315000005400448054B412100224172827259729A7207
S31500000550704700BF004008400041084010B5054CF8
S315000005600549204601F0C0FE2046BDE8104001F0D6
S31500000570ADBE00BFA0BA04200C37000010B5054C74
S315000005800549204601F0B0FE2046BDE8104001F0C6
S315000005909DBE00BFBCBA042034370000F8B5114F29
S315000005A0114E124D1249134C384601F0BBF912494F
S315000005B0304601F0B7F91149284601F0B3F9104960
S315000005C0204601F0AFF9384601F0ECF9304601F06B
S315000005D0E9F9284601F0E6F92046BDE8F84001F0C1
S315000005E0E1B900BF60BA042070BA042080BA0420C2
S315000005F0BC36000090BA0420D0360000E436000075
S31500000600F83600000149024801F0D2BB78360000F6
S3150000061028BA04201A4B1B4A10B553F82040631E13
S3150000062004F1070E13F801CF02F801CB7345F9D197
S31500000630052807D8DFE800F00311171D0D0D124B32
S3150000064000221A60BDE810400F4A1048002101F050
S315000006507DBB0D4B03221A60F4E70B4B00223031B1
S315000006601A60D974EEE7084B012230311A60D9744A
S31500000670E8E7054B022230311A60D974E2E700BF81
S31500000680F45F0020EC5F0020E05F002028BA042021
S3150000069010B5182002F008FE002303604360027BB9
S315000006A0044663F300022273227B636163F3410213
S315000006B00C202273A36002F0F7FD4FF0FF33C0E970
S315000006C0010003602061204610BD00BFC368DB0740
S315000006D01FD42DE9F0414669092E044617DC076947
S315000006E0D7F808800D46D8F80010A94212D016B9DE
S315000006F00368AB420BD00C2002F0D6FDC0F8088090
S31500000700BB680560013647605860B8606661BDE841
S31500000710F0817047BDE8F04101310120FFF77ABF53
S31500000720037B10B5044643F0020323736268236813
S315000007309A420846CCBF0121002100F07DFB2369C7
S315000007405B681B686360616802200131FFF762FF26
S3150000075061680220013100F0A5F8BDE8104000F004
S3150000076027BB00BF037B42696FF34103002A037373
S3150000077001DC00F02BBB036910B55968012A4C68EF
S315000007805C6002F1FF3208BF9B604261084602F0DE
S3150000079093FDBDE8104000F019BB00BF0268436836
S315000007A09A420368B4BF013303F1FF3310B5036007
S315000007B00168044601310320FFF72CFF2168012060
S315000007C0014400F06FF820686368C01AB0FA80F040
S315000007D0400910BD08B50346032204209A60002193
S315000007E0FFF718FFBDE80840014800F0F9BB00BF5D
S315000007F0B035000010B50446044800F0F1FB0021B6
S315000008000520FFF707FF0023A36010BDB8350000E1
S3150000081038B5037B426943F0010303730368436001
S31500000820037B002A6FF34103044603730BDD036960
S315000008305868012A4168596002F1FF3208BF9B607F
S31500000840626102F039FD00F0C1FA6369002B0EDD2A
S3150000085022695068012B4568556003F1FF3108BFD6
S315000008609260616102F028FD6369002BF0DCBDE84F
S315000008703840012000F07EBB10B50446032000F08E
S31500000880EDF840B9237B06486FF300032373BDE8F8
S31500000890104000F0A5BB032000F0E6F8F2E700BF29
S315000008A0C03500000F29034606D8032807D8054A95
S315000008B0002042F8231070474FF0FF3070476FF06A
S315000008C0010070470C60002010B5154B82B010B3C4
S315000008D053F820400194202282404FF4F07392B2E4
S315000008E04FF440710F4800F085FE01990E4A0198B9
S315000008F00E4B32F8102033F811300A48120142EA42
S31500000900C32292B243F6F0034FF4C06102B0BDE8D1
S31500000910104000F06FBE1C68C4F10504DAE700BFA2
S315000009200C600020FCB904201436000008360000D4
S315000009302DE9F041294E2A4FD6F80480294D4FF46F
S31500000940F073402204464FF44071274800F052FEEF
S3150000095037F8182035F818302348120142EAC32226
S3150000096092B243F6F0034FF4C06100F043FE4FF439
S315000009707A71012002F04EF8B6681B484FF4F07306
S3150000098080224FF4407100F035FE37F8162035F816
S3150000099016301548120142EAC3224FF4C06192B2E2
S315000009A043F6F00300F026FE4FF47A71012002F0C0
S315000009B031F80CB9BDE8F0810020FFF785FF4FF450
S315000009C07A71012002F026F80320FFF77DFFBDE8CB
S315000009D0F0414FF47A71012002F01CB80C6000203F
S315000009E0E8350000C8350000FCB90420034B04219B
S315000009F04FF0FF321960DA60704700BF0C600020CC
S31500000A000C480D4B0168013183FB01C2A2EBE17278
S31500000A1002EB4202A1EB42020260C268013283FB92
S31500000A200213A3EBE27303EB4303A2EB4303C3609E
S31500000A30704700BF0C600020ABAAAA2A064B4FF4F1
S31500000A40E0610122A3F84210A3F86220A3F8401047
S31500000A50A3F86020704700BF00010440014B185CFA
S31500000A60704700BFE4B904200F4A135C83F001030A
S31500000A7010B41354537810789178D2780B4C83F0D5
S31500000A80010380F001005B0243EA002381F00101CB
S31500000A9043EA81239BB282F00102A4F84030A4F815
S31500000AA060205DF8044B7047E4B90420000104405F
S31500000AB038B51D4C1D4DA378C3F38103022B28D0F6
S31500000AC0032B21D0012B1AD02868C3689B070CD4AE
S31500000AD0A378C3F34113012B20D0022B05D18368E1
S31500000AE0002B1EDD83680333836094F90230002BEC
S31500000AF000DB38BD2868BDE83840FFF789BE2868A6
S31500000B000021FFF7E3FDDFE728680221FFF7DEFD9E
S31500000B10DAE728680121FFF7D9FDD5E7FFF76AFE76
S31500000B20E3E7FFF757FEE0E7F4B90420ECB9042049
S31500000B300379042B00D070470F4A816892F9003080
S31500000B40581C0BD00D480078884211D010B4581CA0
S31500000B500B4C107019555DF8044B7047094B1B7808
S31500000B608B42E8D1064900230B604B601370704737
S31500000B70FF231370FFF79CBF206000203036000073
S31500000B80F4B904203136000010B5124C0120FFF7ED
S31500000B906BFF2068C368DB0711D48368002B0DDD6B
S31500000BA00D4B1A6801321A601A68012A06DD002206
S31500000BB01A608368013B836083683BB110BD064BB6
S31500000BC000221A60FFF716FE2068E6E7BDE810402F
S31500000BD0FFF710BEECB90420E8B90420F0B5294CA3
S31500000BE02368DA68D20783B026D49D6815BB5B6993
S31500000BF0DBB100F07DF9ADF80600BDF80610224B1A
S31500000C00224F234E386889B2A3FB0131890932315C
S31500000C1000F0ECF833680133336033680F2B16D0DD
S31500000C2033687BB1336801330CD003B0BDE8F040C4
S31500000C30FFF7E6BE03B0F0BD032003B0BDE8F04009
S31500000C40FFF712BF39682068FFF76AFDEDE72068F5
S31500000C50FFF7A4FD4FF0FF3333600028E0D0206893
S31500000C60FFF780FDFFF7C2FE284600F083F9094929
S31500000C70022001F0CFFE206803B0BDE8F040FFF788
S31500000C80A9BD00BFECB904201F85EB51F0B90420C3
S31500000C901C60002040420F0041680D2905D90E292D
S31500000CA006D1064B1868FFF7E7BD0A2901D8704739
S31500000CB07047024B0B391868FFF708BDECB90420E2
S31500000CC0704700BF08B5FFF7E3FC194C0346194807
S31500000CD0236000F03FF8184B1860FFF793FCFFF70E
S31500000CE0ADFEFFF72DFC00F073F9FFF757FC00F09F
S31500000CF0EBF80020FFF7B8FEFFF730FCFFF73EFCED
S31500000D002368196801200144FFF7CCFD2368596860
S31500000D1002200131FFF7C6FD00210846FFF77AFCE5
S31500000D202368D868C0F34000FFF702FEF8E700BF6B
S31500000D30ECB9042080A90300F0B90420022800D0F1
S31500000D407047024B0248596800F086BD34360000F1
S31500000D50FCB9042010B504460C2002F0A5FA322195
S31500000D6001600022104944600272D1F8083162F332
S31500000D704513C1F808310D4BD96A62F31241D962A5
S31500000D80D96A62F3DA51D962611E59669A645A6B5E
S31500000D90092161F304025A635A6B42F480726408B3
S31500000DA05A63DC6410BD00BF006F04400083074037
S31500000DB004490548CB6A01221343CB624FF4106104
S31500000DC000F026BC00830740FCB90420054B06480A
S31500000DD0D96A6FF30001D96200224FF4106100F066
S31500000DE017BC00BF00830740FCB9042064291ED845
S31500000DF0037A10B473B142680D4CC1F1640302FB6F
S31500000E0003F3A4FB03430B4A5DF8044B5B09D3646D
S31500000E10016070474368064C064A01FB03F3A4FBD6
S31500000E2003435B09D3645DF8044B01607047704768
S31500000E301F85EB5100830740037A8B4231D070B592
S31500000E40066804460D464BB34368642202FB03F36F
S31500000E501A4AA2FB03231A4A5B09D36400234FF400
S31500000E607A7123604FF4FA7001F0D4FD2A1E18BF80
S31500000E7001221448227240F6011100F0C9FB642ECB
S31500000E800BD8237A73B963680C490D4A06FB03F342
S31500000E90A1FB03135B09D364266070BD084AD364C3
S31500000EA0DCE7704762680549C6F1640302FB03F399
S31500000EB0A1FB0313024A5B09D364EDE71F85EB51DF
S31500000EC000830740FCB9042010B5054C05492046AF
S31500000ED001F0F0FB20460449BDE8104001F0F4BAE9
S31500000EE004BA04204036000064360000FFFFFFFF0E
S31500000EF010B51D481C4C82B001F0D0FA01238DF8C4
S31500000F00043001A9204601F0CFFA9DF80430012BE8
S31500000F10F7D00DF106020021134801F0CDFABDF815
S31500000F20060002F031F90CA3D3E9002301F0B0FE6C
S31500000F300E4B002201F0ACFE09A3D3E9002301F019
S31500000F40A7FE0B4B002201F0D3FF02F087F980B217
S31500000F5002B010BDAFF300806666666666664A3FFD
S31500000F60E78C28ED0D3E084004BA042000408F406F
S31500000F700000E03F70B5124B12490546124853F87F
S31500000F80254000F065FD104800F0C6FD0F4B53F8F4
S31500000F902550002D13DD013D25F00105A31C0A4E49
S31500000FA01D44617814F8023B304643EA012100F003
S31500000FB0ADFD0121142001F02DFDA542F1D170BD3A
S31500000FC028360000B036000050BA04202036000053
S31500000FD00149024800F078B85C370000D8BA04200E
S31500000FE02DE9F041074602F075FADFF83C80303013
S31500000FF088F802007E1E08F10305002404E016F8B6
S31500001000013F05F8013B0134384602F063FAA0427D
S31500001010F5D8A044032388F80330221D024903486B
S31500001020BDE8F04100F00AB824600020D8BA0420D8
S3150000103008B5FFF747FE002008BD00BF10B4046ADC
S31500001040A37803F07B03A370837803F00303D21A1B
S315000010500B440261A278C360837803F0030342F075
S315000010608002022BA27005D00B78E37000205DF899
S31500001070044B70470B8843F47E43E38100205DF800
S31500001080044B7047F0B5846A85B005460F46944612
S315000010906E46B4B194E80F0086E80F00EB691B7842
S315000010A084F804C02360EB6A2046C4E902736B6AC5
S315000010B09847AC6A1CB196E80F0084E80F0005B0AB
S315000010C0F0BD3446EAE700BF2DE9F04703460A784B
S315000010D00020187002F100724C695C6202F56052E1
S315000010E08C695201C3E907129A78C3E90A040125FB
S315000010F065F301029A704A7822B99A78022060F361
S3150000110001029A7091F90B50B74A8E7A680920301D
S3150000111005F01F07012404FA07F742F82070BFF311
S315000011204F8FBFF36F8FB148B14F05F1C00C360139
S3150000113050F82CE06FF3104E40F82CE002EB050C53
S31500001140F6B28CF8006347F8253091F905500E7910
S315000011504FEA551C0CF1200C05F01F0E04FA0EFE8A
S3150000116042F82CE0BFF34F8FBFF36F8F05F1C00C31
S3150000117002EB050850F82CE03601F6B26FF3104E7C
S3150000118040F82CE088F8006347F8253091F90750BD
S315000011908E794FEA551C0CF1200C05F01F0E04FA4F
S315000011A00EFE42F82CE0BFF34F8FBFF36F8F05F1B1
S315000011B0C00C02EB050850F82CE03601F6B26FF3CE
S315000011C0104E40F82CE088F8006347F8253091F976
S315000011D009600D7A4FEA561C0CF1200C06F01F0E22
S315000011E004FA0EFE42F82CE0BFF34F8FBFF36F8F69
S315000011F006F1C00C324450F82CE02D01EDB26FF32D
S31500001200104E40F82CE082F8005347F82630EFF3F2
S31500001210108584F31088774A0E78D2F800014FF0D3
S315000012200044F44020EA0400C2F80001D2F800218C
S3150000123085F310881A6ACD6900209070107150727B
S315000012409072D07250830C7840F2FF30E040C007B5
S3150000125044BF4020D0740620107708784E788F78E7
S3150000126040F2FF34C440C878E10744BF4FF47841E8
S315000012709182C100032E41EA071100F0B080002ED2
S3150000128014BFF220E220C9B211709071297B490087
S3150000129001F0020151736978A878C901400100F094
S315000012A02000C9B20143002010722E78B01E01281A
S315000012B040F28C80C9B2D171696888785070107814
S315000012C04C7864F301001070C87890740978D0796E
S315000012D001F05C0100F0A3000143D1710020C3E9D5
S315000012E00300C3E90500D3F81C80404C98F905704B
S315000012F007F1C00C790954F82C90890001F160417E
S315000013004FF0010E01F5614160F3104907F01F0728
S3150000131044F82C900EFA07F7C1F880710F6098F91F
S315000013200BC0354F0CF1C0094FEA5C1154F829A0E7
S31500001330890001F1604101F5614160F3104A0CF04A
S315000013401F0C44F829A00EFA0CFCC1F880C1C1F8A4
S3150000135000C098F9071001F1C0094FEA511C54F872
S3150000136029A04FEA8C0C0CF1604C0CF5614C60F333
S31500001370104A01F01F0144F829A00EFA01F1CCF839
S315000013808011CCF8001098F909C00CF1C0084FEA9A
S315000013905C110CF01F0C0EFA0CFE54F828C08900E4
S315000013A060F3104C01F1604144F828C001F5614139
S315000013B006F0030646F07006C1F880E1C1F800E0C9
S315000013C096706A891A815F60BDE8F087022E08BFB1
S315000013D041F01001FF20C9B25070D1717EE741F093
S315000013E04001F2204FE700BF00E100E0006000404E
S315000013F054BB0420006F04405549435330B4EFF307
S315000014000383103B5BB203F1C0011C4A1C4C52F82B
S3150000141021006FF3104042F8210054F82300C369FD
S315000014201B691BB103691BB130BC7047036963B903
S31500001430046AA37803F07F03002143F00403A3703A
S31500001440802230BCC160FFF71DBE827802F0030126
S315000014500229C1680BD0046A91F800C084F803C061
S3150000146002F003029B1A0A44C0E90323DBE70C8857
S31500001470056A44F47E44EC81F2E700BF0060004058
S3150000148054BB042010B582B0EFF30383103B5BB26C
S3150000149003F1C0011C4A1D4C52F821006FF31040A5
S315000014A042F8210054F82340A27802F00303022BED
S315000014B0236A0CBF198A5979A3690CBFC1F30801C5
S315000014C0C9B2019133B90422204602B0BDE81040EA
S315000014D0FFF7D8BD02F0030201A9606901F0F4FE2E
S315000014E0D4E90521A37803F003031A44C91AC4E911
S315000014F0052109B102B010BD0122204602B0BDE8A7
S315000015001040FFF7BFBD00BF0060004054BB042081
S3150000151038B5EFF30384103C0A4B64B2022253F849
S315000015202400056AAB7803F07B03AB700021FFF75C
S31500001530A9FDC034044B53F824206FF3104243F83E
S31500001540242038BD54BB04200060004010B5EFF3E2
S315000015500384103C174B64B253F82400837803F0DD
S315000015600303022B036A0CBF198A597993F804C046
S315000015700CBFC1F30801C9B21CF0100F0CF0380201
S3150000158006D093F81CC01CF0010F08BF42F04002C1
S3150000159093F804C00CF0C70C83F804C0FFF772FD83
S315000015A0C034054B53F824206FF3104243F824202F
S315000015B010BD00BF54BB0420006000400023036040
S315000015C0184670470B0A1B01044853FA81F150F87C
S315000015D02130C3F340030020137070470008044015
S315000015E0090A490101F1804101F5802100204B687B
S315000015F013807047090A490101F1804123EA02007C
S3150000160001F580211A4042EA00428A6000207047B4
S31500001610C8B2012383404AB91A040B0A5B0103F1DD
S31500001620804303F5802300209A6070479AB2F4E75E
S31500001630090A490101F1804101F5802110B40C68C5
S3150000164002EA0300204362EA030202405DF8044B0B
S315000016500A600020704700BF090A490101F1804174
S3150000166001F5802100204B68C3F30F4313807047B8
S3150000167010B40B0A5B0103F1804303F58023C8B263
S315000016805C68012181408BB201EA1441C91AB1FAA2
S3150000169081F1490900205DF8044B1170704700BFC5
S315000016A0090A490101F1804123EA020001F580217E
S315000016B01A4042EA0042CA6000207047014B0020EF
S315000016C01A707047000D04400B0A5B0103F180435A
S315000016D0012A03F580230AD0D868C9B24FF48032B4
S315000016E08A400243120C1204DA6000207047C8B226
S315000016F0D96882400A4392B2DA600020704700BF80
S3150000170038B50488002C4DD043680021043303EB20
S31500001710C40040F202450C4640F2034C40F2044E2F
S315000017200FE0624530D153F8042C02F0B852B2F102
S31500001730807F14BF41F0020144F002040833834263
S3150000174011D01A88AA42ECD153F8042C02F0B852F0
S31500001750B2F1807F03F1080314BF41F0010144F0A8
S3150000176001048342EDD1C943CDB2012001F0E0F975
S315000017700D4B93F8BB2414432C4083F8BB44012043
S31500001780BDE8384001F0A4B97245D7D153F8042C0E
S3150000179002F0B852B2F1807F0CBF44F0040441F06D
S315000017A00401CBE7FF25E0E700E00140F8B5044679
S315000017B0FFF7A6FFEFF31082012383F31088234E71
S315000017C033681BB92249CB704023CB703368013391
S315000017D0336082F3108825882DB362681D4C013D65
S315000017E0ADB202F1080101EBC50500E00831106851
S315000017F0928810F4803F4FEA12235FFA82FC0CEBCA
S31500001800031E09D054F82E7020F480326FF310476F
S3150000181044F82E7044F82E201B0163448D4244F890
S3150000182023000A46E2D1EFF31082012383F31088E6
S31500001830336813B13368013B336033681BB904491D
S315000018408020CB70C87082F31088F8BD50BB04208E
S31500001850000D04400008044008B50346034A1A6018
S315000018600846FFF7A3FF002008BD00BF54524F50A3
S3150000187008B50846FFF79AFF002008BD70B584B08A
S3150000188002AB012668460C461546ADF80C100292CE
S31500001890ADF800600193FFF733FFEFF3108286F394
S315000018A010881D490B681BB91C48C3704023C370C0
S315000018B00B6801330B6082F31088EA034FEA1423A6
S315000018C0E4B219D41B01164A234442F82350EFF31D
S315000018D01082012383F310880B6813B10B68013B58
S315000018E00B600B681BB90D498020CB70C87082F362
S315000018F01088002004B070BD04EB0310084A52F8AB
S3150000190020606FF3104642F8206025F4803642F8D6
S3150000191020601B01D7E700BF50BB0420000D044028
S3150000192000080440F0B591F902C080F804C04FEAFF
S315000019308C03D1E9026403F1804303F5C04300221E
S31500001940D3F80053C3F80023C0E90264124C91F89F
S3150000195000E080F805E004F80E200F79CA784E7989
S3150000196042EA071242EAC612D2B2BCF1000F04F8EC
S315000019700E20C3F800530BDB4B7808490CF160428C
S315000019801B0102F56142DBB282F8003341F82C00FC
S31500001990034B03600020F0BD0060004054BB0420F0
S315000019A05543490010B490F904200D4B02F1C000D4
S315000019B0012153F820406FF3104443F820405309A7
S315000019C09B0003F1604303F5614302F01F0201FA35
S315000019D002F2C3F8802100205DF8044B1A607047BC
S315000019E00060004010B582B0EFF30384103C164B44
S315000019F0164964B253F8242050790B5C03F00303B4
S31500001A00032B0FD0C03451F824306FF3104341F844
S31500001A102430936823B1D268CDE900206846984700
S31500001A2002B010BD936823B1D268CDE900206846A4
S31500001A309847064BC03453F824206FF3104243F8FE
S31500001A40242002B010BD00BF54BB0420006000403B
S31500001A502B4B10B4C3600B7803F001034370EFF314
S31500001A60108C012484F31088264BD3F8082122F425
S31500001A708012C3F80821D3F808318CF31088EFF3ED
S31500001A80108C84F310884278002A33D1C4682379F5
S31500001A9062F3861323718CF310884A68C468D3787E
S31500001AA0DB01DBB26371A379D3B94B78C3B1EFF332
S31500001AB0108C012383F31088124BD3F8084124F4C9
S31500001AC00044C3F80841D3F808318CF31088C36882
S31500001AD003F580544FF0020C84F8C0C080249C713A
S31500001AE0537803720A780270074B43605DF8044B23
S31500001AF000207047C26813796FF3C7131371CAE7E2
S31500001B0000E00540006F044000434144C36842784A
S31500001B10002023F81210704738B5037A0446002BCC
S31500001B203AD0C368427833F81250002123F81210D5
S31500001B30ADB2EFF3108C012383F31088E36840788D
S31500001B401A7900283DD061F3C7121A711A7F42F044
S31500001B5080021A771A7A42F080021A721A7942F0D3
S31500001B6080021A718CF310880121042000F052FFC4
S31500001B70EFF31081012383F3108862788ABBE06853
S31500001B80037F62F38613037781F31088E368627834
S31500001B90002023F8125038BDEFF31083012282F3A0
S31500001BA010884278C1683AB10A7942F080020A7117
S31500001BB083F31088002038BD0A7942F040020A718A
S31500001BC0F6E760F386121A711A7F42F040021A771E
S31500001BD01A7A42F040021A721A7942F040021A71D9
S31500001BE0C0E7E268137F6FF3C7131377CCE700BF34
S31500001BF0F0B5076A8DB006466FB3BE468C46BEE8A2
S31500001C000F0001AC0FC4BEE80F000FC49EE807002A
S31500001C1084E80700BCE80F003D460FC5BCE80F008E
S31500001C200FC59CE807008EE80700F3693846984719
S31500001C30336A73B10DF1040E9C46BEE80F00ACE8A2
S31500001C400F00BEE80F00ACE80F009EE807008CE826
S31500001C5007000DB0F0BD0F46E7E700BF437B934298
S31500001C6010B4446852D0B4F840386FF38A23A4F80D
S31500001C704038B4F840384FF0020C6CF30923A4F84E
S31500001C804038B4F8423803F4E063B3F5007FF8D186
S31500001C90022384F8582842730373994215D0052904
S31500001CA0B4F8403814D06FF38A23A4F84038B4F857
S31500001CB0403861F309230A02A4F84038B4F84238E0
S31500001CC003F4E0639342F9D101735DF8044B704766
S31500001CD06FF38A23A4F84038B4F84038022262F33E
S31500001CE00923A4F84038B4F8423803F4E063B3F5A6
S31500001CF0007FF8D1B4F8403843F48063A4F8403844
S31500001D00B4F842385B05FBD50173DEE7037BC4E715
S31500001D109DF800C048B102280ED0002322F0604290
S31500001D201A4342EA8C720A607047074B03EA824202
S31500001D3042EA8C720A607047002BF6D0012B14BF62
S31500001D4000234FF00043E9E70000FC1FF0B54468AC
S31500001D50651883B095F82038DB0925D11746026847
S31500001D6001F12003126904EB03111E017B79107B3C
S31500001D7000933B793A68FFF7CBFFB31DBA7923444A
S31500001D808C8862F303048C8007F10C0099182AB141
S31500001D9010F8012B03F8012B8B42F9D18023002088
S31500001DA085F8203803B0F0BD4EF6632003B0F0BDD1
S31500001DB02DE9F04F0C680D6904F580245034240396
S31500001DC085B0884607464460EFF3108C012181F305
S31500001DD01088934AD8F80030D2F80061C3F10203A4
S31500001DE001FA03F326EA0303C2F80031D2F8003100
S31500001DF08CF31088D8F80830C361D8F80C30C0F8D6
S31500001E0000800026C0E908632B7803763246FFF788
S31500001E1025FF2B7D2A7BD8F80410DB0043EA42031A
S31500001E2043F4E073A4F840388B684A68D1F80CC0D4
S31500001E30013B013A1B0243EA02730A680CF1FF31C7
S31500001E4043EA0133511E027E1343764A02EA0142F7
S31500001E501343C4F8443832460221FFF7FFFE04F567
S31500001E600073802284F85028314618464FF40072D9
S31500001E7001F038FA2B69014609E09E4212D3A019F7
S31500001E800136202E80F8202801F1100118D0A8680C
S31500001E9000EBC60C4FEAC60E9CF80620002AECD0D2
S31500001EA00022ECE79CF804309CF805C050F80E20A0
S31500001EB0287BCDF800C0FFF72BFF2B694022DEE719
S31500001EC09B0800F0A9806A680397A2F1040C00221F
S31500001ED00CEB830396466FF060494FF00F0B5CF8EE
S31500001EE0041F494502F580760ED295F80CA09000A5
S31500001EF0BAF1000F02D14C4F07EA814144F826108F
S31500001F000BFA00F14EEA010E9C4502F10102E6D100
S31500001F10039F6FEA0E030022C4F8283411463846A0
S31500001F20FFF79CFEB4F8403843F02003A4F840388D
S31500001F30B4F84038C3F340109B06F9D498F915302D
S31500001F4098F81410DFF8E8C0DFF8E8E0374E0CEB3D
S31500001F5003020901C9B282F8001303F1C0054EF865
S31500001F6023705A0956F82590920060F3104902F141
S31500001F70604246F8259002F56142012503F01F03F1
S31500001F8005FA03F3C2F88031136098F91630DFF8CA
S31500001F90A8900CEB030203F1C00A82F800134EF876
S31500001FA023705A0956F82AB0920002F1604202F5EF
S31500001FB0614260F3104B03F01F0346F82AB005FA9E
S31500001FC003F3C2F88031136098F91720944453093B
S31500001FD08CF800134EF8227002F1C0019B0002F04B
S31500001FE01F0205FA02F203F1604356F8215003F589
S31500001FF0614360F3104546F82150C3F880211A600A
S315000020003E2384F84C384FF0FF33C4F82C34C7F81D
S31500002010089005B0BDE8F08F4FF0FF337BE700BFB7
S31500002020006F04400000FF030000FC1F006000403A
S3150000203000E100E054BB04204E41435230B58DB060
S31500002040EFF30383103B5BB22E4AC03352F82310E2
S315000020506FF3104142F82310EFF30383103B5BB29A
S31500002060294A52F8235000212C2201A801F03AF9FE
S315000020706C6894F84D380020DBB284F84D08ADF852
S315000020800830B4F84218C1F30012C90638D543F037
S315000020902003ADF80830022394F8532884F8533807
S315000020A094F8523803F01F03D2B2E11884F853288B
S315000020B091F8202860F3820281F820282A681268A5
S315000020C0019201A96A6A049328460692FFF790FDD9
S315000020D0B4F84238DB0611D52B681A69127D6AB14D
S315000020E093F91530002B09DB5A09084803F01F0342
S315000020F00121403201FA03F340F822300DB030BD21
S315000021001346DBE70060004054BB042000E100E01A
S315000021102DE9F0418CB0EFF30383103B5BB2404AEC
S31500002120C03352F823106FF3104142F82310EFF337
S315000021300384103C3B4B66B2002253F82600D0E9DC
S3150000214000E595F8533885F8532895F8527807F046
S315000021501F07DBB207F1200285F85338130104F09C
S31500002160FF0455F803C0CCF380718DF82110E958AF
S31500002170DEF810301B7B43EAD17303F001038DF8C0
S315000021802030002B48D1CCF38A4305EB021207938B
S315000021909188C1F3030301F00F0108298DF822305D
S315000021A037D908218DF822100AAA002305EB071853
S315000021B008EB030C01339CF806C202F801CB8B42F4
S315000021C0F6D3DEF8003004972F440193442387F8B2
S315000021D020380023099307AB05934FF48063ADF8CD
S315000021E0083001A9436A0693FFF702FDB5F84238A5
S315000021F0DB070BD5002E09DB76090B4A04F01F041A
S315000022000123403603FA04F442F826400CB0BDE838
S31500002210F0810029C8D1D4E72CF06043B5E700BFB0
S315000022200060004054BB042000E100E070B58CB0B3
S31500002230EFF30383103B5BB2214AC03352F82310FD
S315000022406FF3104142F82310EFF30383103B1D4A4E
S315000022505BB2012652F823506C6894F8532884F830
S31500002260536894F85238D2B203F01F0384F8532807
S315000022700493E2184FF40063ADF808302B681B682E
S3150000228001936B6A0693002382F8203801A982F82D
S31500002290203828460593FFF7ABFCB4F842389B0775
S315000022A00CD52B6893F91730002B07DB5A09064922
S315000022B003F01F0340329E4041F822600CB070BD0F
S315000022C00060004054BB042000E100E08268117AFF
S315000022D001F00101137AC3F340039942FAD1F123C5
S315000022E013720020704700BFF0B40B7C03F140135B
S315000022F003F500631B02C0E90113EFF31085012308
S3150000230083F310880C7C394AC4F10304A340D2F845
S31500002310084124EA0303C2F80831D2F8083185F3EC
S315000023201088826800231372137AC3F3400C9B074C
S31500002330FAD4CC6982F80AC0E37826780D7A247933
S3150000234003F00703002E42D1002D47D114734C68C9
S315000023504768002696735372631E95729BB2C460DB
S315000023603D7C1380224B43F8254091F91230B3424D
S3150000237022DB4A7C03F1604404F561441201D2B2C7
S3150000238084F800231B4A1C4C42F8230003F1C005C5
S315000023905A0954F82570920002F1604266F310471C
S315000023A044F8257002F5614203F01F03012404FA84
S315000023B003F3C2F880311360D1E9054100230F4AC7
S315000023C00461C0E905310260F0BC18467047502E22
S315000023D006BF43F0500365463343B7E785F0020571
S315000023E043EA0513DBB23546B0E700BF006F044091
S315000023F008BB042054BB0420006000405447410041
S31500002400F0B585B0EFF30383103B5BB203F1C00177
S315000024101F4A204C52F821006FF3104042F8210069
S3150000242054F82350D5E901020178137A0129DBB269
S315000024300CD1F42103F0F0031172E9681372047CE5
S31500002440154840F82410013989B211802F69B7B1B7
S315000024506C6901AECCB194E8070086E807009B06DC
S3150000246044BF00232371AB6923602046B8476B69DC
S315000024701BB196E8070083E80700AA68137ADBB267
S3150000248003F00F03137205B0F0BD3446E7E700BF53
S315000024900060004054BB042008BB04200346002013
S315000024A01A689B8A1380704703681B88C3F3C0337E
S315000024B000200B70704700BF03681031002033F80E
S315000024C011301380704700BF43682DE9F041D1E910
S315000024D001260C685D6903681FFA84F8A3F8048076
S315000024E01FFA82F8A3F8148022F0405C1FFA86F8DF
S315000024F024F0405E26F040572243A3F808804FEAB6
S315000025001C4C3F0C4FEA1E4812F0405FA3F80680B1
S31500002510A3F816C05F815BD18A7CCE7CCF6812029D
S3150000252002F4E0623243A3F86620002F00F0B18087
S31500002530B7F808C01CF4006F20D0D7E90062B7F8DE
S315000025400A80A3F890C0A3F89C80B7F80C80A3F883
S315000025509E801FFA86F8A3F89480C6F30B48360FC0
S31500002560A3F8968083F8926096B2A3F89860C2F3B7
S315000025700B46120FA3F89A6083F893201CF4007F91
S315000025801AD10A8AA3F890C0A3F88020EA786AB123
S315000025901A88818A92B222F01F02BEFA8EFE1F327C
S315000025A0A2EB0E0292B211431A8081823A4BC0E925
S315000025B003340020BDE8F081BA7CFE7C324383F808
S315000025C0A620FA89A3F8A8203A8AA3F8AA20D8E771
S315000025D0324FD7F82080324F3F68C8F3026C07FAB3
S315000025E00CFCC8F302182F4F2CFA08FCA7FB0C7C36
S315000025F04FEA9C1C2C4F41F2360808FB0CFCA7FB4B
S315000026000C7C4FEA9C4C0CF1010CBCF1070F38BF57
S315000026104FF0070C12F0805727D0EFF310860123F6
S3150000262083F31088214BD3F8084124F48004C3F8BF
S315000026300841D3F8083186F310881D4F0C688E6860
S3150000264003684FF0900814F0805F87F800805FFA07
S315000026508CF783F8DE7014BF4FF480774FF48067F1
S3150000266016F0805F18BF47F0010792000ED5A20052
S3150000267048BF47F400775FFA8CFC58BF47F4006701
S31500002680B20083F8DFC048BF47F00207BFB25F82DF
S3150000269042E7BC4675E700BF4344415200E00140B3
S315000026A0E0BC0420D34D621083DE1B43006F044060
S315000026B000D005400B882DE9F043D1E903525B02B7
S315000026C003F180434C69026203F5B82300220360DC
S315000026D085614160C2614A798E78E578130243EAE2
S315000026E04633002D00F0E18043F43073022A08BF20
S315000026F0744A9BB208BF32F825E0838218BF4FF0B8
S31500002700000E0A79CD7894F801C02678D20342EA01
S31500002710450242EA4C1CEFF31088012585F3108828
S31500002720694F0A88D7F80891C2F1100205FA02F239
S3150000273029EA0202C7F80821D7F8082188F3108889
S3150000274047F6FF5702683B401FFA8CFC1380A2F83D
S3150000275010E049F69913A2F80EC016730026A2F8E7
S31500002760B061A2F8A03191F90630B34221DB0A7AB2
S3150000277003F1604707F561471201D2B287F80023DB
S31500002780524A534F42F8230003F1C00C5A099200F3
S3150000279003F01F0305FA03F302F1604257F82C50C9
S315000027A002F5614266F3104547F82C50C2F88031B5
S315000027B0136091F90730002B22DB4A7A03F160415E
S315000027C001F561411201D2B281F800233F4A404926
S315000027D042F8230003F1C0055A0951F8256092001A
S315000027E002F160426FF3104641F8256002F561423E
S315000027F003F01F03012101FA03F3C2F880311360CD
S3150000280094F90630002B22DB227A03F1604101F5B0
S3150000281061411201D2B281F800232C4A2C4942F8B8
S31500002820230003F1C0055A0951F82560920002F110
S3150000283060426FF3104641F8256002F5614203F0ED
S315000028401F03012101FA03F3C2F88031136094F9E2
S315000028500730002B22DB627A1C4C03F1604101F544
S3150000286061411201D2B281F8002344F8230003F13A
S31500002870C001174A52F821406FF3104442F8214034
S315000028805A09920002F1604202F5614203F01F0309
S31500002890012101FA03F3C2F88031136000230D4AC7
S315000028A0036182601846BDE8F0833AB943F40043F9
S315000028B043F040039BB28382964622E743F04003EF
S315000028C014E700BF94390000006F044054BB042095
S315000028D00060004043444152064B074993F82600E6
S315000028E01A6A51F820300549C2F30262D3400B60E0
S315000028F0704700BF00E00140B0B90420E0BC0420EE
S3150000290030B4374B374C3849384800224AF2035521
S31500002910A3F8FE53A4F80021354C4C60354D364CD7
S3150000292008604FF40040C1E9020493F82640C1E96B
S31500002930040551F824001C6A304DC4F30264E040DB
S315000029400924286083F8132483F8A24093F88004AE
S3150000295018B183F8812483F88024214A06200023B5
S3150000296082F8A50082F8323092F83C301807FBD581
S31500002970002342F20170108582F82A30184B93F832
S315000029803C209206FBD5174A022082F81C0105203E
S3150000299083F826001A48186293F826001C6A51F834
S315000029A02000C4F3026C20FA0CF0286001214024B8
S315000029B04FF4254083F8301083F8521083F85310F3
S315000029C083F82440A3F8FE03A2F80411B2F80431F8
S315000029D09BB2002BFAD1012330BCA2F8003170471C
S315000029E000E0014000C00140B0B90420002D3101D3
S315000029F000127A00001C4E0E00366E01E0BC042068
S31500002A0021120121704700BFA0F101000028FBD16F
S31500002A10704700BF30B5144D144A00FB01F14FF466
S31500002A207A732868B2FBF0F2A1FB03C44FF0FF30C3
S31500002A304FF0000E60457EEB040407D3BCFBF2F0BA
S31500002A40800878B1BDE83040FFF7DEBF9200B1FBE9
S31500002A50F2F1A1FB031388427EEB0303F2D308468F
S31500002A600028EFD130BD00BFE0BC042000CA9A3B6D
S31500002A700B4B70B5B3F840510A4E0024ADB225FA9F
S31500002A8004F3DB07E0B203D556F8243003B19847C8
S31500002A900134102CF3D1024BA3F8305170BD00BFA6
S31500002AA00060004010BB042010B4074A074C002306
S31500002AB003F1C001013332F8020F44F82100602B04
S31500002AC0F6D15DF8044B70479A380000006000406C
S31500002AD0EFF31081012383F31088124B33F8102093
S31500002AE092B22AB133F81020013A92B223F810209C
S31500002AF033F810309BB293B90B4A10B4B2F8FE33D8
S31500002B000A4C9BB234F8100043F4254323EA000331
S31500002B10A2F8FE3381F310885DF8044B704781F309
S31500002B2010887047D4BC042000E00140A0390000A2
S31500002B3030B4EFF31081012383F310880E4A32F884
S31500002B4010309BB26BB90D4C0D4DB4F8FE3335F811
S31500002B5010C09BB243EA0C0343F425439BB2A4F88E
S31500002B60FE3332F8103001339BB222F8103081F375
S31500002B70108830BC704700BFD4BC042000E0014080
S31500002B80A03900000B4A08B50346106840B103336C
S31500002B90094923F0030303448B4204D8136008BD9C
S31500002BA006481060F3E700F079FB0C2303604FF052
S31500002BB0FF3008BDDCBC0420F8390520F8BC042031
S31500002BC000BE704708B500F003F8FEF731FAFEE7DD
S31500002BD0224B234A4FF4700170B50020C3F88810C9
S31500002BE09A60FEF7ABF8FFF78BFE0120FEF7A6F81A
S31500002BF01C4B1D491D4D1E4E1E481F4A00244FF4F6
S31500002C00254C9C80A3F800C09E60DD604FF4805583
S31500002C10A1F8205101219980121A214600F062FB89
S31500002C201648174A1749184D121A00F04DFB174B54
S31500002C305B1BA34206DD9E1055F8043B0134984702
S31500002C40A642F9DCFFF748FE0220FEF777F8FFF709
S31500002C502BFFBDE870400020FFF7D4BE00ED00E07A
S31500002C6000000000000D004000600040F83D052017
S31500002C70F8390520C8B90420F4BC04200000FE1F62
S31500002C80B0B904200C3A0000A8B90420ACB904205D
S31500002C9070B54FF0FF0C4CF4E06C1CEA11541DBFEC
S31500002CA01CEA135594EA0C0F95EA0C0F00F0DEF8B7
S31500002CB02C4481EA030621EA4C5123EA4C5350EA9C
S31500002CC0013518BF52EA033541F4801143F48013ED
S31500002CD038D0A0FB02CE4FF00005E1FB02E506F07E
S31500002CE00042E0FB03E54FF00006E1FB03569CF0D3
S31500002CF0000F18BF4EF0010EA4F1FF04B6F5007FD9
S31500002D0064F5407404D25FEA4E0E6D4146EB06064A
S31500002D1042EAC62141EA55514FEAC52040EA5E50D3
S31500002D204FEACE2EB4F1FD0C88BFBCF5E06F1ED87D
S31500002D30BEF1004F08BF5FEA500E50F1000041EBB4
S31500002D40045170BD06F0004646EA010140EA020061
S31500002D5081EA0301B4EB5C04C2BFD4EB0C0541EA83
S31500002D60045170BD41F480114FF0000E013C00F398
S31500002D70AB8014F1360FDEBF002001F0004170BDBC
S31500002D80C4F10004203C35DA0C341BDC04F11404D5
S31500002D90C4F1200500FA05F320FA04F001FA05F261
S31500002DA040EA020001F0004221F0004110EBD3702E
S31500002DB021FA04F642EB06015EEA430E08BF20EA5A
S31500002DC0D37070BDC4F10C04C4F1200500FA04F3FD
S31500002DD020FA05F001FA04F240EA020001F000418F
S31500002DE010EBD37041F100015EEA430E08BF20EA02
S31500002DF0D37070BDC4F1200500FA05F24EEA020E4A
S31500002E0020FA04F301FA05F243EA020321FA04F078
S31500002E1001F0004121FA04F220EA020000EBD3702F
S31500002E205EEA430E08BF20EAD37070BD94F0000F2F
S31500002E300FD101F00046400041EB010111F4801F63
S31500002E4008BF013CF7D041EA060195F0000F18BF14
S31500002E50704703F00046520043EB030313F4801F50
S31500002E6008BF013DF7D043EA0603704794EA0C0F0A
S31500002E700CEA135518BF95EA0C0F0CD050EA410620
S31500002E8018BF52EA4306D1D181EA030101F000419D
S31500002E904FF0000070BD50EA410606BF10461946C5
S31500002EA052EA430619D094EA0C0F02D150EA0136D1
S31500002EB013D195EA0C0F05D152EA03361CBF104612
S31500002EC019460AD181EA030101F0004141F0FE41B1
S31500002ED041F470014FF0000070BD41F0FE4141F435
S31500002EE0780170BD81F0004102E000BF83F000432D
S31500002EF030B54FEA41044FEA430594EA050F08BF8F
S31500002F0090EA020F1FBF54EA000C55EA020C7FEA52
S31500002F10645C7FEA655C00F0E2804FEA5454D4EBCF
S31500002F205555B8BF6D420CDD2C4480EA020281EA99
S31500002F30030382EA000083EA010180EA020281EAD1
S31500002F400303362D88BF30BD11F0004F4FEA013123
S31500002F504FF4801C4CEA113102D0404261EB410132
S31500002F6013F0004F4FEA03334CEA133302D05242B8
S31500002F7063EB430394EA050F00F0A780A4F1010474
S31500002F80D5F1200E0DDB02FA0EFC22FA05F28018AE
S31500002F9041F1000103FA0EF2801843FA05F3594194
S31500002FA00EE0A5F120050EF1200E012A03FA0EFC13
S31500002FB028BF4CF0020C43FA05F3C01851EBE3713D
S31500002FC001F0004507D54FF0000EDCF1000C7EEB5A
S31500002FD000006EEB0101B1F5801F1BD3B1F5001F98
S31500002FE00CD349085FEA30004FEA3C0C04F10104B7
S31500002FF04FEA445212F5800F80F09A80BCF1004FE0
S3150000300008BF5FEA500C50F1000041EB045141EA61
S31500003010050130BD5FEA4C0C404141EB0101013C2A
S3150000302028BFB1F5801FE9D291F0000F04BF014619
S315000030300020B1FA81F308BF2033A3F10B03B3F1EB
S3150000304020020CDA0C3208DD02F1140CC2F10C027B
S3150000305001FA0CF021FA02F10CE002F11402D8BFD9
S31500003060C2F1200C01FA02F120FA0CFCDCBF41EAA5
S315000030700C019040E41AA2BF01EB0451294330BD74
S315000030806FEA04041F3C1CDA0C340EDC04F1140451
S31500003090C4F1200220FA04F001FA02F340EA030028
S315000030A021FA04F345EA030130BDC4F10C04C4F16E
S315000030B0200220FA02F001FA04F340EA030029464E
S315000030C030BD21FA04F0294630BD94F0000F83F498
S315000030D0801306BF81F480110134013D4EE77FEA7B
S315000030E0645C18BF7FEA655C29D094EA050F08BFC7
S315000030F090EA020F05D054EA000C04BF19461046A8
S3150000310030BD91EA030F1EBF0021002030BD5FEAEB
S31500003110545C05D14000494128BF41F0004130BD13
S3150000312014F580043CBF01F5801130BD01F0004567
S3150000313045F0FE4141F470014FF0000030BD7FEADA
S31500003140645C1ABF194610467FEA655C1CBF0B46D5
S31500003150024650EA013406BF52EA033591EA030FEC
S3150000316041F4002130BD00BF90F0000F04BF0021E4
S31500003170704730B54FF4806404F132044FF0000517
S315000031804FF0000150E700BF90F0000F04BF002190
S31500003190704730B54FF4806404F1320410F00045F6
S315000031A048BF40424FF000013EE700BF42004FEAF1
S315000031B0E2014FEA31014FEA02701FBF12F07F436E
S315000031C093F07F4F81F06051704732F07F4208BF25
S315000031D0704793F07F4F04BF41F40021704730B52C
S315000031E04FF4607401F0004521F000411CE700BF78
S315000031F050EA010208BF704730B54FF000050AE0FB
S3150000320050EA010208BF704730B511F0004502D5FB
S31500003210404261EB41014FF4806404F132045FEAFD
S31500003220915C3FF4D8AE4FF003025FEADC0C18BFA6
S3150000323003325FEADC0C18BF033202EBDC02C2F198
S31500003240200300FA03FC20FA02F001FA03FE40EA2A
S315000032500E0021FA02F11444BDE600BF4A0011D265
S3150000326012F5001211D20DD56FF47873B3EB6252DA
S315000032700ED44FEAC12343F0004343EA505323FAE6
S3150000328002F070474FF00000704750EA013002D15B
S315000032904FF0FF3070474FF000007047014B186841
S315000032A0704700BF44B90420024B0146186800F07D
S315000032B08DB800BF44B90420024B0146186800F0DF
S315000032C019B800BF44B904200A44914200F1FF3303
S315000032D000D1704710B511F8014B03F8014F914228
S315000032E0F9D110BD02440346934200D1704703F85A
S315000032F0011BF9E737B5002944D051F8043C019089
S31500003300002BA1F10404B8BFE41800F0EBF81E4A44
S315000033100198136833B96360146003B0BDE83040A8
S3150000332000F0E6B8A34208D9256861198B4201BFAF
S3150000333019685B6849192160EDE71A465B680BB1AD
S31500003340A342FAD911685518A5420BD12468214425
S315000033505418A3421160E0D11C685B685360214495
S315000033601160DAE702D90C230360D6E725686119F4
S315000033708B4204BF19685B68636004BF491921600A
S315000033805460CAE703B030BDE4BC042070B50E4EED
S315000033900C463168054611B900F08CF830602146BC
S315000033A0284600F087F8431C0AD0C41C24F0030406
S315000033B0A04207D0211A284600F07CF8013001D13E
S315000033C04FF0FF34204670BDE8BC04202DE9F041E3
S315000033D0CD1C25F0030508350C2D38BF0C25002D16
S315000033E0074601DBA94205D90C233B60002630467F
S315000033F0BDE8F0812E4E00F075F833681C4634BBEC
S3150000340029463846FFF7C2FF431C04464DD13468AF
S315000034102646002E40D123683146384604EB030881
S3150000342000F048F880453AD1216803356D1A25F039
S31500003430030508350C2D38BF0C2529463846FFF7FD
S31500003440A5FF01302BD023682B4423600EE02268B1
S31500003450521B1ED40B2A16D96119A342256018BF28
S315000034605960636808BF316062514B60384604F1A9
S315000034700B0600F03DF826F00706231DF21AB6D01B
S315000034809B1BA350B3E76268A3420CBF32605A602D
S31500003490ECE723466468B2E734467668B9E70C235E
S315000034A03B60384600F024F8A1E72560DEE700BF60
S315000034B0E4BC042038B5064D0023044608462B60BC
S315000034C0FFF760FB431C02D12B6803B1236038BDB4
S315000034D0ECBC0420034613F8012B002AFBD1181A72
S315000034E001387047014800F009B800BFF0BC04205D
S315000034F0014800F004B800BFF0BC042070477047D4
S315000035004275696C7420776974682052656E6573BC
S31500003510617320416476616E63656420466C6578EC
S3150000352069626C6520536F667477617265205061BD
S31500003530636B6167652076657273696F6E20332EE3
S31500003540352E3000332E352E3000000000000503E6
S31500003550F8B500BFF8BC08BC9E467047F8B500BF7A
S31500003560F8BC08BC9E46704743414E204F4B455918
S315000035700000000053616D652074205800000000B3
S315000035804D6F7665546F204E0000000041727269DF
S31500003590546F204E000000004452204F70656E208C
S315000035A000000000445220436C6F736500FFFFFF6C
S315000035B04F50454E00FFFFFF434C4F534500FFFF62
S315000035C0524553554D4500FF0C000F000A000B00F5
S315000035D00900090008000D0008000900080008009D
S315000035E00C000A00080008000000090004000000A2
S315000035F009000200020008000000000008000300A5
S315000036000600010006000E000F000F000F000F005D
S315000036100E000D000E000D000B0007000F000F003E
S31500003620E05F0200E05704000000FE1F306000204B
S315000036300302FFFFFCB904208C3700005C39000050
S31500003640000000000000DFDFFFFF000000000000B8
S315000036500000000058360000000102000000DFDF15
S31500003660FFFFFFFF01000000000000000000000057
S3150000367000000000000000180100000010B804203F
S31500003680C10C000000000000903600000E0A0B0C72
S315000036900100000020B9042020B80420000000002A
S315000036A020000000000000000000000000000000F4
S315000036B000000000B8360000000000000B0C0600F9
S315000036C003000000990C000000000000000000004C
S315000036D00C0C070003000000990C0000000000001D
S315000036E0000000000D0C080003000000990C00000B
S315000036F000000000000000000E0C0900030000009E
S31500003700990C00000000000000000000000000000E
S31500003710004000000000000000200000000D040032
S31500003720890B0000000000002C370000400000015B
S31500003730000000FF000000009919000000000000D2
S31500003740CC0C0000010C0500DD0B000000000000A1
S315000037505437000040000001000000FF0002000096
S315000037600C000C010C020C0300000000000000001D
S31500003770310B0000000000007C3700000001000053
S3150000378040B904200F00FFFF0000000021000000E8
S3150000379094370000004000000600000000400000D2
S315000037A00800000000400000090000000040000082
S315000037B00A000000008000000E000000000001006A
S315000037C008010000000001000901000000000100DE
S315000037D00A010000000001000003000004000000D0
S315000037E005030000040000000603000004000000BA
S315000037F007030000040000000803000004000000A6
S315000038000903000000000103030400000000010496
S315000038100A040000000001040B040000000001106F
S315000038200B050000000001100C050000050000005B
S315000038300406000005000000050600000500000063
S31500003840060600000500000007060000050000004F
S315000038500B060000050000000C0600000500000035
S315000038600D060000050000000E0600000400000022
S315000038700009000004000000010900000500000026
S31500003880080A000005000000090A00000500000003
S315000038900A0A000005000000000B00007401750113
S315000038A076017701400043000C000D000E000F006A
S315000038B08F0092009300900091000000000000002D
S315000038C000000000000000000000000000000000F2
S315000038D000000000000000000000000000000000E2
S315000038E000000000000000000000000000000000D2
S315000038F000000000000000000000000000000000C2
S3150000390000000000000000000000000000000000B1
S3150000391000000000000000000000000000000000A1
S315000039200000000000000000000000000000000091
S315000039300000000000000000000000000000000081
S315000039400000000000000000000000000000000071
S3150000395000000000000000000000000059180000F0
S31500003960BD150000711800007D18000071160000DA
S31500003970C9160000BD160000C5150000111600008E
S315000039803116000059160000A1160000E1150000CE
S31500003990F51500000A0900000A0900003F0B0000A7
S315000039A001000200080010000000000000000000F6
S315000039B00000000000000000000000000000000001
S315000039C000000000000000000000000000000000F1
S315000039D000000000000000000000000000000000E1
S315000039E000000000000000000000000000000000D1
S31500006E8C000800080008FF07FF07FF07FF07FF07BA
S31500006E9CFF07FF07FF07FF07FF07FF07FF07FF07B0
S31500006EACFF07FF07FF070008FF07FF07FF0700089C
S31500006EBC0008000800080008000800080008000880
S31500006ECC0008000800080008000800080008000870
S31500006EDCFF07000800080008FF0700080008000864
S31500006EECFF07FF0700080008000800080008FF0756
S31500006EFCFF070008FF07FF07000800080008FF0748
S31500006F0CFF07FF07000800080008FF07FF07FF0739
S31500006F1CFF07FF0700080008FF07FF07FF07FF072B
S31500006F2CFF07FF0700080008FF07FF07FF07000819
S31500006F3C0008FF07FF0700080008FF07FF07FF0709
S31500006F4CFF07FF07FF07FF07000800080008FF07F9
S31500006F5CFF07FF0700080008FF07000800080008E5
S31500006F6CFE07FE07FF070008000800080008FF07D9
S31500006F7CFE07FF07FF07FF07000801080008FF07C9
S31500006F8CFE07FE07000802080008FE07FF07FF07BA
S31500006F9CFF07FF0700080008FF0700080008FF07A7
S31500006FACFE07000801080008FE07FF070008000896
S31500006FBCFF07FF0701080108FF07FD07FF07000889
S31500006FCCFF07FF07000800080008FF07FE07000878
S31500006FDC01080108FF07FC07FD0701080308010863
S31500006FECFF07FF070008FE07FC0701080508040851
S31500006FFCFD07FA07FC070108030802080108000848
S3150000700CFF07FD07FC07FC07FF070308030800083A
S3150000701CFE07FD07FE0701080208FF07FB07FE0730
S3150000702C03080108FC0700080308FD07F907000818
S3150000703C06080208FD07FD07010802080008FD07FF
S3150000704CFE07000803080108FB07FA0702080508F3
S3150000705C0108FD07FE07FF07FE07010807080508DC
S3150000706CFB07F807FE07FD07FA07FF070208FD07EF
S3150000707CFE0707080808FA07F207FD0709080508BE
S3150000708CFD07FF070008FE070008030801080008B3
S3150000709C04080508FE07F507FA0708080C08010896
S315000070ACFD070008FF07FB07FD07FE07FB07FA07AE
S315000070BC000805080108FB07FD070108010801087F
S315000070CC0008FC07FF0705080208FB07FA07FE077E
S315000070DC0308040801080008FC07F607FF070C085C
S315000070EC0408F807FF0708080008F407FA07080859
S315000070FC0708FF0702080408FA07F9070208FE0743
S3150000710CF307F7070A0815080B08F807F107F7073E
S3150000711CFC07010809080A08FD07F507FA07000825
S3150000712C07080808FB07F307FE070208F607F5072A
S3150000713C0A081608FD07E607F80711080D08FE07EA
S3150000714CFA0702080D080608F507F70706080D08E2
S3150000715C0208EE07EC070308170815080108EC07E8
S3150000716CEF07FC07FF07FC070308140821080A08A9
S3150000717CDC07D407F80711080F0810081408FC07D9
S3150000718CDA07DF07000810080E0812081608FD07B4
S3150000719CD407D60704081E0815080208F407F207D8
S315000071ACF507F407FE070B080B080408F607EC07AF
S315000071BC0008170813080008E807E1070608300856
S315000071CC2808F807DA07F10717081A080808FD0750
S315000071DCF707FA07060814081608F907D307D8079D
S315000071ECFE0715080F080308FD07F507E707ED0767
S315000071FC07080D080008F707F407F507000810083C
S3150000720C180811080608F607E307F00710080E0819
S3150000721CF807F6070D0820080C08E907F207080816
S3150000722C020803080A08FA07EE07FB070A0808080B
S3150000723CF007E80706081008F007E607FC070C0835
S3150000724C0E080608F807F507FF07FD07F107F6070E
S3150000725C0208010808081A0818080108EA07EA07CC
S3150000726C0C0823080B08F007ED07EE07FA070D08C4
S3150000727C17081508FC07DB07DD07F80715083008A3
S3150000728C1F08E507CF07EB070608120811080508C3
S3150000729CFC07FA072308AA08FD08DB07A205110557
S315000072AC9B07980A970A0D083D069E060B087D0952
S315000072BC6D0AC8099207B9059805E906F808A90ADE
S315000072CCB20AE2087006090582053A071209390A5C
S315000072DCE609230848067405CA053E077709470BD5
S315000072EC2E0B9408F7048303CB05AF09E50B3B0B78
S315000072FCB70846065705EA0571079009270BD50A04
S3150000730CB3082C06DF04B805F707160A1A0B380A59
S3150000731C7D070F050205F3063C09820A270A870832
S3150000732C6806B304C2040407E609730BC10A2008F5
S3150000733C5C058104DB0557089E0A3E0BAF09120754
S3150000734C0905DC04D7069A094A0B2C0B6009CB06F7
S3150000735C18056C059E07690AB80B680AA40761052F
S3150000736CC7042D06BE08D00A2E0B9809DF06D904D1
S3150000737CDF04BE065309130BB40A6B08C20551048D
S3150000738C1505B5075C0A560B380AAC075405D30429
S3150000739C5306CA08DA0A2A0B6B09DF0621054405CF
S315000073AC5D07F909540BCC0AA7080606C804D705CD
S315000073BC5708A10A250B8B0924076A0516057E06B4
S315000073CCF308C60ABD0AC6080B068D0449055F07F5
S315000073DC7E09A10A050AF707C505D104ED058A0839
S315000073ECBA0A0D0B86090F0723050205B4064609D2
S315000073FC440B2E0BF608680649050E061E08340AC1
S3150000740C1D0B5D0A22088D058D04FA05A908C10A13
S3150000741CF90A3D09DE0656054F05E9065709C50A60
S3150000742C260A0E08D605DB04B905C007DE09080BCB
S3150000743C370AC0077B05EF0470061409ED0ABF0A6C
S3150000744CFB08BB063C0590058007D109410BD00A09
S3150000745C9E0843063605E305FE07480A1B0BE209A0
S3150000746C56071305DD04D5065109C00A870AC70855
S3150000747C86060C05280501078B09D40AFD09D007D9
S3150000748CAD05EE0421066D08710A150BC209350708
S3150000749C4E054305E8063309AF0A880A0509E506D1
S315000074AC5C05B605D6072F0A3C0B4A0AEF07D7052B
S315000074BC350525063B08390A9F0A3B090F0768055F
S315000074CC640504071709740A5A0A86081406CA04BE
S315000074DC71059E07EE09B80AA109B007FF057A05E2
S315000074EC9806AE08780ADC0A5A09E9066105A3056E
S315000074FC58079409FB0A9F0AC9088F0656051F06EA
S3150000750C5108380AB40A93097407A8053A055F06A8
S3150000751C9E089A0AC30AFA089D062F0584054D078C
S3150000752C4709540AE6090608DA05FA04020642086F
S3150000753C520AD20A96099607DE055F05AE060609BB
S3150000754CB80A9F0AC708830680052F06DF07C709F6
S3150000755CE60A530A54082A0632052B0664082B0A37
S3150000756C740A3A09220777055C05E3062A09B30A69
S3150000757C4B0A570855064E05AF055E075F09790A93
S3150000758CF509F407D10545059C06C908810AB40A14
S3150000759C46093D07B50585050F076109BE0A610A4F
S315000075ACAF08AE06A7053606EF07F609FD0AF80979
S315000075BC8D0780050F0568069A08260A4C0A1E09CF
S315000075CC15076705600508074109970A060A0108A9
S315000075DC03061C05C605D9070C0ADE0AE009B40722
S315000075ECD0059505F906E608650A9D0A31090007D6
S315000075FC77059A058907F309060B3D0A56086406B2
S3150000760C840541061B08F709920A4A090C077605F8
S3150000761C5B05B306CA08530A590AD5088D0609052F
S3150000762C800578077709540A9909CA071F067F054A
S3150000763C4D065D08640ADA0A8A096907C605B005AB
S3150000764C22071609800A840AE408B9069505250658
S3150000765C0408F1099F0ACF0918083C0652052206B0
S3150000766C2108F4095B0AF108D4069F05D6052A07FA
S3150000767C0309420AF50949083F062E05E805C9071C
S3150000768C7E09410AB009FD074A06C505D106E80878
S3150000769C8E0A720AD708FD06E20518067807300925
S315000076AC600A3E0A9B08A306D20581062408BC097B
S315000076BC320A40097A07CA0551059B06AF080C0A1F
S315000076CCFC09A608ED06E705FA051B07EB082F0AC9
S315000076DCC6090108270674056C065208E4096E0AE9
S315000076ECAB09DD073506E5051007F208470A230A3C
S315000076FCC9082007F80514069A079009A30A150A63
S3150000770C230832069C0573060A088A09000A0C0926
S3150000771C4C07C1057605D006D308120AF30996085C
S3150000772CB5068A05D1055E0757095E0A9D09D2077B
S3150000773C5806FC05EB069C080D0A7B0A8A098F077E
S3150000774CE605D1053D072E09680A1C0A9F08F406B2
S3150000775CF4054B06F207B009420A620999070406BA
S3150000776CA505820611089F091D0AFB080807A50531
S3150000777CC20556072609F30984092F088C06A705A6
S3150000778C3106DB07AF09740A9409DA077B06210672
S3150000779C0C07C9082C0A460AF508F706C70543065E
S315000077ACCE076309490AEC096C08B006B60535061E
S315000077BC0608C109130AF0082107BD05AC05E50644
S315000077CCA608040A0B0A9008B306B7051106830728
S315000077DC2709FA0994091C085806AA05B906B60819
S315000077EC4A0A7B0A36097F0761063D063307E70816
S315000077FC280A070AA408DF06F005840606087E098F
S3150000780C350A9709D0071406890580065308AB0973
S3150000781CA7099A083207170601062407DB08160A79
S3150000782CDB0932086B06BE055E06E90785092E0ADA
S3150000783C8B09FF0774061C064A07F808110A1D0A6D
S3150000784C06095C071D06FF053D073D09720AE90995
S3150000785C4108AE061006AB06FC074109D209210900
S3150000786C6207DB059E05BF068908D009CA09AD0863
S3150000787C1707D805F50580074909160A7409DB07A9
S3150000788C7D062406C5062B08CB097C0AA409DA0753
S3150000789C4C0615065D070C09030ADD09A708FF0649
S315000078AC01065306CE078A09400A7709EB077E06BE
S315000078BCD5056306E0075A09E409F2080B07BC056F
S315000078CCF3054A07E908EC09B3097608EA06DC056C
S315000078DC2306BA076A09160A7D090408A2063E069B
S315000078EC02079608240A750A30094E0710062A065E
S315000078FC7007F208DD09D409A908EC06E60554065A
S3150000790CE0078709150A2709870724069C056906D7
S3150000791C2B08A609E809CD081307060648067407BE
S3150000792CEA08F409C8095D089F06B9056B064508FF
S3150000793CDB09370A6509EC07A10659063A07CD0893
S3150000794C1B0A110AA608F406FE0537068D0733092D
S3150000795C1F0AC2092D085D06BF05A506280856098B
S3150000796C9009B20849071B06CE05D606B108000ACF
S3150000797CE2098C08E60607066906AC072609050A1D
S3150000798C8B090208950632061507A908DC09160AA2
S3150000799C5B09DD07660618063207E308010AB40917
S315000079AC3F08D20637069006C9073C09E5094A097D
S315000079BCBB073306C905A806120842099909BF0870
S315000079CC3A0713061A0670072C09FC097E093908B2
S315000079DCE30635069C06DB075309270A9309FC07C1
S315000079ECAB066F064E07C608E209EA09E3084A0722
S315000079FC1206310685070209C4096D093708E70620
S31500007A0C2F067306BF074809D009EC084607FA0586
S31500007A1CE905FE0669087F09B709C2083A073E065A
S31500007A2C6A06A7072C09E1096A093708DD06270645
S31500007A3CC0065508D609480A5209AD0795068C06A4
S31500007A4C5A079D08A309AF09A1080807F2054406C1
S31500007A5CB8073209DB095E09F3078006E4057406EC
S31500007A6CF1075C0997099B083E0746063D06360753
S31500007A7CA608D109F509B708EE0608068706ED072C
S31500007A8C5509E30958092508E90664062007A808DC
S31500007A9CE109050AFF08750763064C062D07A908B8
S31500007AACC9099C094508BE060C06A7060308200949
S31500007ABC8009FF08AE074E06D805A00634088B09C8
S31500007ACCAA09A1084E07690673068C070C09EF096B
S31500007ADC9B093408BE064906EF062D086E09020AF4
S31500007AEC79091C08BA064A064107D608CC099B092F
S31500007AFC760806072E0663067A07F008D30963098B
S31500007B0CFD07A8061B06A106EB071E098609D90860
S31500007B1C5807110611064607D008C30996098A08A4
S31500007B2C51077F069206B7073209ED0970090E0850
S31500007B3CBD066F0633078208BA09100A2309960791
S31500007B4C6F0657065E07BB087309420958080D07EE
S31500007B5C2E067106B6073109D60915098D075D067D
S31500007B6C1306C00611083B098609C60863075E069C
S31500007B7C8606A207F208C9099F097C081607410662
S31500007B8C98060B088809F1093409EF07E106AC06DB
S31500007B9C5B0783089709D009C208270726064906FA
S31500007BAC6B07CE088C0947092E08CE061B06AC06B9
S31500007BBC070832097209A1085D076E063906F00638
S31500007BCC6508A709CB09C40847076506C006EA0776
S31500007BDC1409B40962092F08EA066A06020767083F
S31500007BECA209DA091809DF07C0066D0631078B08EA
S31500007BFC94097C093808C80631069D06B707EC08B7
S31500007C0C86092909FD079C060506B70617083109DA
S31500007C1C6F09AC0866077A0671066907F008EB0966
S31500007C2C9F096C0829078606DD06EA071109BF09B4
S31500007C3C6D092008CD0677064607A908AE09A809DE
S31500007C4CB7086A0762064D064B07A5087409390979
S31500007C5C1408DD065B06B406C5071009A309FA0865
S31500007C6C890744060D06110779085F097709BD08CF
S31500007C7C8707A306AE06B2071C09E3096D092E0891
S31500007C8CFB067106E9062A086E09EB093D09C607CB
S31500007C9CA8069D06720792085D094F096C08250710
S31500007CAC26063D068507FC089A091E09E407B80650
S31500007CBC5206D206F30724098009AC0857076B064F
S31500007CCC72066B07B908A109B509CB0857076C06EC
S31500007CDCBA06F9074709BD091C09F907FE069706F6
S31500007CEC1F0766089009D109F40878076A06720618
S31500007CFC50077D085C0941092608D006220699061C
S31500007D0CF00724097509E508C607A4063506CC064E
S31500007D1C1F086209A009A70853079006C406CE07D8
S31500007D2C0D09C10989096C0806076106ED062408C8
S31500007D3C4409B0092109F907E6067D062B079B08BD
S31500007D4CA5097F096008060743067D066D0792089C
S31500007D5C5D0932091008CC064306CD060E08230928
S31500007D6C6209C0088B076F0646063D07AD08AF09CA
S31500007D7C98098C086807D006EF06D1070B09BC09D1
S31500007D8C5F092308CF0664062B0773087209AD0931
S31500007D9CF208A5079C0673064C0798085A0914099D
S31500007DAC1608F206460689069D07EC08A40924095E
S31500007DBCBC078C0651060A073D0829094B09A90878
S31500007DCC8D0796069B06B0070809CE099409780814
S31500007DDC39079406D606F0073F09BF091609D107DD
S31500007DECCD06A8066607790852097F09B30850071D
S31500007DFC470646065107AF085C09F908F607E3067D
S31500007E0C5906CE06FF0722098309D20880078A067F
S31500007E1C75062A075D086E099F09C9087B0798062F
S31500007E2CDA060F083D09AB093809240808078B0642
S31500007E3CF70627086109B509F108B307B9069206D2
S31500007E4C540778084D0946093608CE0624069606C8
S31500007E5CB607D9085609F008FA07EC065C06DD06E3
S31500007E6C2E084C0975099D085B079006B3069C07FE
S31500007E7CDD08C209A1098D084B07A80606071408D8
S31500007E8C12097D091E090108D10673062907810806
S31500007E9C90098509800852079006860651077708CF
S31500007EAC33090B090508C9064F06DB06F6070A094E
S31500007EBC7E09F508C007A4065B062C0782085F0935
S31500007ECC52098D088907E306FE06D4070809D2096C
S31500007EDC79093808000788060A072F082D0977093B
S31500007EECF008C707B70698066C078B0845092409DE
S31500007EFC3A081E07600668066407BD086E09020983
S31500007F0CD807C8068C062D07310818096109BF0861
S31500007F1C9207A1068E067B07C90890097A09AE0856
S31500007F2C8907C606FF0605082A09A6090709CB070D
S31500007F3CE006AF0632073D083A097F09D4088E07DA
S31500007F4C81067B066A0788082809F008FD07E906FA
S31500007F5C5906B106DC0711097309E208D207DF06D8
S31500007F6C9E062E0738083B098509B3086507A70640
S31500007F7CE706F1071E09AA095A09710850079E0659
S31500007F8CF1060B081B097409DC08BC07D906A80600
S31500007F9C42076B085F095C095F080F074E069506DA
S31500007FAC890783081709F3080F08FF067D06EE06F6
S31500007FBC27084B097709B808A407C2069D0661076E
S31500007FCC910874097E0997087007E90635070B08AE
S31500007FDC0209860930091E08E70665060A074E08D7
S31500007FEC41095C09A2089007CC06AF0651076F0839
S31500007FFC380903090508EB065806B206BA07CB087A
S3150000800C5F091609F507D30697064E076E083F0952
S3150000801C40098B089C07DD06C906A207E808B709C4
S3150000802C840974084B07CD0622070608010967095F
S3150000803CDC08BD07BE068F06580775082B093709DD
S3150000804C8D086807820678064F078B084309DE08F9
S3150000805CCF07E80698060907110811097209F408F2
S3150000806CCE07CC06AC066907790846095909A50856
S3150000807C9907D506F80609083309A1092409120837
S3150000808C1207B6060F07EE07F6086409C5089B0724
S3150000809CB906A4066C0781082209040936080C07E0
S315000080AC51069A06A707C0083C09D808F407240706
S315000080BCCA062B0737083F097F09C1088307B30691
S315000080CCDE06BB07BF087109610990088707E2063F
S315000080DC1907190814095109CF08D607DB068406B7
S315000080EC18073A083B0960097B084907A306C0062E
S315000080FC78076508FC08E2081108F5066706E1062C
S3150000810C060814096E09E708E6070707BE065207B4
S3150000811C7B0856094B0982088007EB062307ED07F7
S3150000812CDF088E09680955081F079A0609071708FC
S3150000813CFD081F098F08A807D506A60654076A0866
S3150000814C30091A09330823078A06A50673078B0814
S3150000815C3009F308FB07F106AD065E076408220931
S3150000816C5209C908CB07F706C8067307A50876098E
S3150000817C50097C088A07FB062F070908F9086909C4
S3150000818CF508D107D3069D062C071D08E708190923
S3150000819C9A08A007B6069B066F0786081D09D8081D
S315000081ACE707FA069D06E806CC07E3086009EF0820
S315000081BCF8071907E2067C076E0825094F09B4086B
S315000081CC9507CB06EE06DD07FA08810927094C0848
S315000081DC6B07E8061707EC07D8083709AE089007AF
S315000081ECB806A9064B074B081809200961084F0762
S315000081FC8906A9069B078F08F508BF0803082607FA
S3150000820CC40620071F0835098B09DA08C107FE06C4
S3150000821CEE06940785083409430991088607EE068D
S3150000822C2F070A08F5085A09F90816081B078E06BF
S3150000823CF1060608EF08160973087307D106E2065D
S3150000824C76074D080209FB08230819078506CC0694
S3150000825CC707C2082909E40814083007E4066F07A3
S3150000826C7508450949098E08A8070D070207A807CE
S3150000827CA5085B09540978085807DB063E07100861
S3150000828CD5081A09A008B207DD06930623073B0892
S3150000829C0009010962087907CA06C6066F0768084D
S315000082AC1509E008EA07FD06B80638072A08FB0890
S315000082BC4909F50810082407E80682077E083C09D8
S315000082CC36097908980706071007DB07EB086B09D0
S315000082DC0F091B082207C7062A07E6079F08FA0894
S315000082EC94089A07C306A5065F0771081209EA08DF
S315000082FC31084707AE06CF069A0799082809DB0806
S3150000830CFB073D07040769074B0822096009DC08CF
S3150000831CD007EB06EB06BA07A5082E0919096A0859
S3150000832C940710072607E807DC083609B608C107C4
S3150000833CE606A2061A07FD07CF080D09750872078F
S3150000834CC906E0069A077608E508BC081B083D072F
S3150000835CAE06FA06F607F5085E09EB08F9074607B6
S3150000836C2507910769082C0939098A089507F40627
S3150000837C1907E107B7083309170955085707CA063D
S3150000838C0F07F807D108F0085A088407DD06C1065E
S3150000839C4D073208F208110958085107C406EC06B5
S315000083AC9D077F080209D00817083E07DC06600700
S315000083BC670829094709C808F0073E07110784070B
S315000083CC6B0831092F096B087C07FE063B07FC0777
S315000083DCBE081F09D908F2070007AA061407F207F8
S315000083ECB208D1085908A307F906CE066F076D081F
S315000083FC0D09EC0819082907CE062107D807AB0882
S3150000840C2A09F10829085C07170798077C081F0931
S3150000841C2E09A508C0070B07FE06A907A8084209DE
S3150000842C000934086F0709073707E1079708EE08B4
S3150000843C9E08AB07C306A1063F072508D908EF0817
S3150000844C5C088B07EC06E6069D078C08FE08BD0843
S3150000845C06084B0700074F07190803097009FC08A3
S3150000846C010831071307B0078508050903097C08BD
S3150000847C9C07FD061B07D907BE083509DD0802084F
S3150000848C3707CC06FF06CF07A908E6086308790765
S3150000849CD006E60690075808E708F00856086F0756
S315000084ACCE06EC06C707BA081C09D3081D086407D4
S315000084BC2807900763082E095909AD08B807210744
S315000084CC1B07A5077608070908096E087A07DF0651
S315000084DC2607FF07BF08F7088508B107F906B50692
S315000084EC1307F707C608EB085E088907FA060E0796
S315000084FCA5076B08FF08EB0821083B07DA063E07C1
S3150000850C2C08FC082F09DA08330876072907970781
S3150000851C6C081A0924096E08820706072307C10787
S3150000852C9B082109EE0821083907D3063007ED0709
S3150000853C8808B9085E089E07EB06B9064807520874
S3150000854C0D09F50846087607F9061D07C2078308C4
S3150000855C0509E3081A085307230791075C0816094F
S3150000856C4609D40800082F07FA069A0786080C094C
S3150000857CE50837087B071A073607CD079C080A0952
S3150000858CB808D707F606AC062307EE079308CE08FD
S3150000859C68089207F306FC06A40788080709CD08A5
S315000085AC28087A0702071E07E007C9084109F808D8
S315000085BC1B085C074407BE077308050914098A08DB
S315000085CCAE0701070207B6078908F908D70831086C
S315000085DC6707F4061607C907A508EA085B087D07AE
S315000085ECE106CF0657072108BC08EA087D089D0757
S315000085FCFC061807C80794080009C8081E086A076D
S3150000860C1007630747081A094D09CD08F6075A07DC
S3150000861C43079E074608E808FA085B087807E6064B
S3150000862C1407E407AA08EB08A808F6072607C906E4
S3150000863C1807D7079208C208410888070E070407CF
S3150000864C84075E080509050954086607F206420701
S3150000865CFE07AF080009CA0832088B0739079607C8
S3150000866C73081C0923099408BC071B0715079707F1
S3150000867C5B08F708E0081A08500702074207E707E5
S3150000868C8408BB087808C707F806AC062D0715083A
S3150000869CC708D6084C089C072D073407C3078E0855
S315000086AC0409D60822085E071A0777072108D2089C
S315000086BC3509EE08210863072D07A9077F08F80876
S315000086CCC90838088C070E071807AF077508F20893
S315000086DCC108F9073507ED063007D4077908B40841
S315000086EC58089107E806EE0699076408E208D908C7
S315000086FC5708B1073A073307CB07A9081409C60868
S3150000870C12086B074007B0076208F7082809B50876
S3150000871CD4072C072407A4075308C008AD082F0854
S3150000872C7E07FD061A07D2079D08E7087708A707F4
S3150000873C0E07ED063D07E7078E08BF085F08AB0777
S3150000874C1C073107D9078C08F208E20849087F078D
S3150000875C170752071208DE081B09B1081108920701
S3150000876C6707B1075008E108FB0869088307F50697
S3150000877C1407B2076908C908A20811085B07F206B4
S3150000878C3707EF078408A50846089A071407FD065D
S3150000879C5D072508E608FC0860089D073507630792
S315000087AC02089B08E108BE082F087C0732078C07D5
S315000087BC4F08F9081B09AD08FE0762072E07950737
S315000087CC4D08CE08B9080F084E070B074C07D00703
S315000087DC6908C5089308EB073007D406310700086B
S315000087EC9508A3084308A5072B073407C007850877
S315000087FC0A09E8084008970749077107FB079D080F
S3150000880CFE08D50823086B074907C6077C08F60837
S3150000881CE2085708B0072C07100790075208BD0846
S3150000882C980806085B0711074D07D9077708C5088E
S3150000883C69089C07FD06F4067D073708AD08B608DF
S3150000884C6208D10757075A07E707A8081009C8088E
S3150000885C16087D07420786073408DB081009B80896
S3150000886CFD075F075907CA074C08A808AA082D0870
S3150000887C7807FC060B07B6078608D2087A08D807CD
S3150000888C480712075407E5077708A9084608990709
S3150000889C25073307BC077008E608E8087308B40711
S315000088AC39076E071A08B808ED089A0802089207E5
S315000088BC6E07A8074908EC0804098008BB072807B7
S315000088CC2807A8073E089B088C08030855070507C8
S315000088DC4A07F3078708A6085608C9073A07000788
S315000088EC53070608AE08D2084E089E0753078007A2
S315000088FC01089E08F408CB08420898073D0785072F
S3150000890C3008BA08E708A708100880075707B20707
S3150000891C6008DD08B8081208660711073407AD07AA
S3150000892C3D08A1089108FB0750070E075807FC07DE
S3150000893C89089B083C08AD072C071B07A8076A0883
S3150000894CDE08D3085608C1077B079707FF0795086B
S3150000895CF608C00813086E074207B0075F08D6086A
S3150000896CE0088008DE0756073D07A00740089D086B
S3150000897C7008EC07620711073707CE077208C208A2
S3150000898C7F08C3072307190782070E0882089A086F
S3150000899C4808C40759075907EA07A6080209D40864
S315000089AC4608AA075C0788071508B108EC08920860
S315000089BCEF0777076D07D0075508B008BA085208B5
S315000089CC940707071407A00749089D086008D707EE
S315000089DC62072D075E07F5078708A7084B08AB0744
S315000089EC300730079E073708B908D6086C08C50744
S315000089FC61078D072B08BD08E3089F081A08920724
S31500008A0C590792072408C108ED087E08D80767079E
S31500008A1C5607B107400897087D08FB074D07F40673
S31500008A2C3B07D7075C0896086908EA076407250719
S31500008A3C620707089908A8083708A1074E076F07A9
S31500008A4CE8078108EE08E0085608BA076E079A0789
S31500008A5C2308A008C4088C080B0876074807B1073A
S31500008A6C5908CE08C308390896073E073E079307F0
S31500008A7C1E087E086408E1074E0717076607FC0701
S31500008A8C7C08A7085F08C907420725079207420812
S31500008A9CB008A3084708D30786079D070F089F0849
S31500008AACFC08CF08220881075907A0072708A30846
S31500008ABCC1087408EB076B075407BF0750089A08E0
S31500008ACC7808FE076B0710071F07A1074C08A208BA
S31500008ADC6808D607560740079707130878089C08B6
S31500008AEC5008B80749075207CF077C08E408C9089D
S31500008AFC5C08DC0783079B072208AD08D7088508A6
S31500008B0CEA0771076307AF072D08A408C2086408B3
S31500008B1CBB0736073707B007350871084B08D5076A
S31500008B2C55071E075007E2078208B3085C08D407EE
S31500008B3C66074607940722089608B3085908BB0728
S31500008B4C64079B072308A808E708BC084208B9076E
S31500008B5C66078B0717089E08BC086608D7077007B8
S31500008B6C6607B4073A08A708970811087007130791
S31500008B7C3207B2072C0866085808F207690735074A
S31500008B8C820718089C08AE084308B90763075D07F7
S31500008B9CBC075708CA08CB085E08D1078F07BD0764
S31500008BAC2B089C08D00899080E087C0741079607E5
S31500008BBC3808A308A2084A08C60761075907A6077A
S31500008BCC220883086608D507490716074A07D307FC
S31500008BDC5F089C087108F2076A074A07A907360856
S31500008BEC940896084108D0077E078007F407990871
S31500008BFCF808D3084808B4077E07B2071708800898
S31500008C0CB2086D08DC0768075207AD0740089908DB
S31500008C1C88082C08A2072C0729079C072B0877081D
S31500008C2C4808C7075F074D078C0706088208B10876
S31500008C3C7008DD075E075707C4074D08AD08B20874
S31500008C4C5708DF079507A9072608B708DF08910814
S31500008C5C110897076207960708087C08AC085C0899
S31500008C6CBC0751075D07C00739087A085908EE0793
S31500008C7C690713073707C1074F088C085B08E80715
S31500008C8C87076907A1072708A408B1084B08BD0781
S31500008C9C6407860703087D08C708C8086408D70751
S31500008CAC8A07A9071E089A08B3085B08DB07700732
S31500008CBC4E079A072708930898082A089807480722
S31500008CCC5807AB0717085C084808E1075E0720073A
S31500008CDC700711088B08A8086508E707850775074C
